{
  "contractName": "BoxFactory",
  "abi": [
    {
      "anonymous": false,
      "inputs": [
        {
          "indexed": true,
          "internalType": "address",
          "name": "owner",
          "type": "address"
        },
        {
          "indexed": false,
          "internalType": "address",
          "name": "box",
          "type": "address"
        }
      ],
      "name": "BoxCreated",
      "type": "event"
    },
    {
      "constant": false,
      "inputs": [
        {
          "internalType": "address",
          "name": "token_address",
          "type": "address"
        },
        {
          "internalType": "uint256",
          "name": "goal",
          "type": "uint256"
        },
        {
          "internalType": "uint256",
          "name": "mininal_contribution",
          "type": "uint256"
        },
        {
          "internalType": "address",
          "name": "receiver",
          "type": "address"
        }
      ],
      "name": "createBox",
      "outputs": [
        {
          "internalType": "address",
          "name": "",
          "type": "address"
        }
      ],
      "payable": false,
      "stateMutability": "nonpayable",
      "type": "function"
    }
  ],
  "bytecode": "0x608060405234801561001057600080fd5b506115e9806100206000396000f3fe608060405234801561001057600080fd5b506004361061002b5760003560e01c80635bbf7b8914610030575b600080fd5b6100a66004803603608081101561004657600080fd5b81019080803573ffffffffffffffffffffffffffffffffffffffff1690602001909291908035906020019092919080359060200190929190803573ffffffffffffffffffffffffffffffffffffffff1690602001909291905050506100e8565b604051808273ffffffffffffffffffffffffffffffffffffffff1673ffffffffffffffffffffffffffffffffffffffff16815260200191505060405180910390f35b6000803390506000868686868560405161010190610251565b808673ffffffffffffffffffffffffffffffffffffffff1673ffffffffffffffffffffffffffffffffffffffff1681526020018581526020018481526020018373ffffffffffffffffffffffffffffffffffffffff1673ffffffffffffffffffffffffffffffffffffffff1681526020018273ffffffffffffffffffffffffffffffffffffffff1673ffffffffffffffffffffffffffffffffffffffff16815260200195505050505050604051809103906000f0801580156101c7573d6000803e3d6000fd5b5090508173ffffffffffffffffffffffffffffffffffffffff167f98d5abe2c9ed4febb6dd6a15ca80f2ad064112c9db67e0e7fa3325ba18d7cb8882604051808273ffffffffffffffffffffffffffffffffffffffff1673ffffffffffffffffffffffffffffffffffffffff16815260200191505060405180910390a28092505050949350505050565b6113568061025f8339019056fe608060405260016000806101000a81548160ff02191690831515021790555060008060016101000a81548160ff02191690831515021790555034801561004457600080fd5b50604051611356380380611356833981810160405260a081101561006757600080fd5b81019080805190602001909291908051906020019092919080519060200190929190805190602001909291908051906020019092919050505080600160006101000a81548173ffffffffffffffffffffffffffffffffffffffff021916908373ffffffffffffffffffffffffffffffffffffffff16021790555081600260006101000a81548173ffffffffffffffffffffffffffffffffffffffff021916908373ffffffffffffffffffffffffffffffffffffffff16021790555084600060026101000a81548173ffffffffffffffffffffffffffffffffffffffff021916908373ffffffffffffffffffffffffffffffffffffffff160217905550836003819055508260048190555050505050506111d1806101856000396000f3fe608060405234801561001057600080fd5b50600436106101215760003560e01c80638c8e8fee116100ad578063b69ef8a811610071578063b69ef8a8146104cd578063be040fb0146104eb578063c1cbbca7146104f5578063c52cca1614610523578063f7260d3e1461054157610121565b80638c8e8fee14610304578063af157c191461034e578063b16a867c146103ad578063b3f05b97146104a1578063b48309da146104c357610121565b80633cb5d100116100f45780633cb5d1001461020c578063401938831461027a57806342e94c90146102985780634bb278f3146102f057806351b42b00146102fa57610121565b806302d05d3f1461012657806302fb0c5e14610170578063176a879a146101925780632ce01837146101ee575b600080fd5b61012e61058b565b604051808273ffffffffffffffffffffffffffffffffffffffff1673ffffffffffffffffffffffffffffffffffffffff16815260200191505060405180910390f35b6101786105b1565b604051808215151515815260200191505060405180910390f35b6101d4600480360360208110156101a857600080fd5b81019080803573ffffffffffffffffffffffffffffffffffffffff1690602001909291905050506105c3565b604051808215151515815260200191505060405180910390f35b6101f66105e3565b6040518082815260200191505060405180910390f35b6102386004803603602081101561022257600080fd5b81019080803590602001909291905050506105e9565b604051808273ffffffffffffffffffffffffffffffffffffffff1673ffffffffffffffffffffffffffffffffffffffff16815260200191505060405180910390f35b610282610625565b6040518082815260200191505060405180910390f35b6102da600480360360208110156102ae57600080fd5b81019080803573ffffffffffffffffffffffffffffffffffffffff16906020019092919050505061062b565b6040518082815260200191505060405180910390f35b6102f8610643565b005b61030261080b565b005b61030c610899565b604051808273ffffffffffffffffffffffffffffffffffffffff1673ffffffffffffffffffffffffffffffffffffffff16815260200191505060405180910390f35b6103566108bf565b6040518080602001828103825283818151815260200191508051906020019060200280838360005b8381101561039957808201518184015260208101905061037e565b505050509050019250505060405180910390f35b6103b561094d565b604051808c1515151581526020018b1515151581526020018a1515151581526020018973ffffffffffffffffffffffffffffffffffffffff1673ffffffffffffffffffffffffffffffffffffffff1681526020018881526020018781526020018681526020018581526020018481526020018373ffffffffffffffffffffffffffffffffffffffff1673ffffffffffffffffffffffffffffffffffffffff1681526020018273ffffffffffffffffffffffffffffffffffffffff1673ffffffffffffffffffffffffffffffffffffffff1681526020019b50505050505050505050505060405180910390f35b6104a9610a23565b604051808215151515815260200191505060405180910390f35b6104cb610a36565b005b6104d5610c08565b6040518082815260200191505060405180910390f35b6104f3610c0e565b005b6105216004803603602081101561050b57600080fd5b8101908080359060200190929190505050610dd6565b005b61052b611161565b6040518082815260200191505060405180910390f35b610549611167565b604051808273ffffffffffffffffffffffffffffffffffffffff1673ffffffffffffffffffffffffffffffffffffffff16815260200191505060405180910390f35b600160009054906101000a900473ffffffffffffffffffffffffffffffffffffffff1681565b6000809054906101000a900460ff1681565b60086020528060005260406000206000915054906101000a900460ff1681565b60065481565b600781815481106105f657fe5b906000526020600020016000915054906101000a900473ffffffffffffffffffffffffffffffffffffffff1681565b60035481565b60096020528060005260406000206000915090505481565b6000809054906101000a900460ff1661065b57600080fd5b61066361118d565b61066c57600080fd5b600160009054906101000a900473ffffffffffffffffffffffffffffffffffffffff1673ffffffffffffffffffffffffffffffffffffffff163373ffffffffffffffffffffffffffffffffffffffff16146106c657600080fd5b60008060029054906101000a900473ffffffffffffffffffffffffffffffffffffffff1690508073ffffffffffffffffffffffffffffffffffffffff1663a9059cbb600260009054906101000a900473ffffffffffffffffffffffffffffffffffffffff166005546040518363ffffffff1660e01b8152600401808373ffffffffffffffffffffffffffffffffffffffff1673ffffffffffffffffffffffffffffffffffffffff16815260200182815260200192505050602060405180830381600087803b15801561079757600080fd5b505af11580156107ab573d6000803e3d6000fd5b505050506040513d60208110156107c157600080fd5b81019080805190602001909291905050505060008060006101000a81548160ff0219169083151502179055506001600060016101000a81548160ff02191690831515021790555050565b6000809054906101000a900460ff1661082357600080fd5b600160009054906101000a900473ffffffffffffffffffffffffffffffffffffffff1673ffffffffffffffffffffffffffffffffffffffff163373ffffffffffffffffffffffffffffffffffffffff161461087d57600080fd5b60008060006101000a81548160ff021916908315150217905550565b600060029054906101000a900473ffffffffffffffffffffffffffffffffffffffff1681565b6060600780548060200260200160405190810160405280929190818152602001828054801561094357602002820191906000526020600020905b8160009054906101000a900473ffffffffffffffffffffffffffffffffffffffff1673ffffffffffffffffffffffffffffffffffffffff16815260200190600101908083116108f9575b5050505050905090565b60008060008060008060008060008060008060009054906101000a900460ff1661097561118d565b600060019054906101000a900460ff16600060029054906101000a900473ffffffffffffffffffffffffffffffffffffffff16600354600454600554600654600780549050600160009054906101000a900473ffffffffffffffffffffffffffffffffffffffff16600260009054906101000a900473ffffffffffffffffffffffffffffffffffffffff169a509a509a509a509a509a509a509a509a509a509a50909192939495969798999a565b600060019054906101000a900460ff1681565b6000600960003373ffffffffffffffffffffffffffffffffffffffff1673ffffffffffffffffffffffffffffffffffffffff1681526020019081526020016000205411610a8257600080fd5b6000600960003373ffffffffffffffffffffffffffffffffffffffff1673ffffffffffffffffffffffffffffffffffffffff16815260200190815260200160002054905060008060029054906101000a900473ffffffffffffffffffffffffffffffffffffffff1690508073ffffffffffffffffffffffffffffffffffffffff1663a9059cbb33846040518363ffffffff1660e01b8152600401808373ffffffffffffffffffffffffffffffffffffffff1673ffffffffffffffffffffffffffffffffffffffff16815260200182815260200192505050602060405180830381600087803b158015610b7357600080fd5b505af1158015610b87573d6000803e3d6000fd5b505050506040513d6020811015610b9d57600080fd5b8101908080519060200190929190505050506000600960003373ffffffffffffffffffffffffffffffffffffffff1673ffffffffffffffffffffffffffffffffffffffff16815260200190815260200160002081905550816005600082825403925050819055505050565b60055481565b6000809054906101000a900460ff16610c2657600080fd5b610c2e61118d565b610c3757600080fd5b600260009054906101000a900473ffffffffffffffffffffffffffffffffffffffff1673ffffffffffffffffffffffffffffffffffffffff163373ffffffffffffffffffffffffffffffffffffffff1614610c9157600080fd5b60008060029054906101000a900473ffffffffffffffffffffffffffffffffffffffff1690508073ffffffffffffffffffffffffffffffffffffffff1663a9059cbb600260009054906101000a900473ffffffffffffffffffffffffffffffffffffffff166005546040518363ffffffff1660e01b8152600401808373ffffffffffffffffffffffffffffffffffffffff1673ffffffffffffffffffffffffffffffffffffffff16815260200182815260200192505050602060405180830381600087803b158015610d6257600080fd5b505af1158015610d76573d6000803e3d6000fd5b505050506040513d6020811015610d8c57600080fd5b81019080805190602001909291905050505060008060006101000a81548160ff0219169083151502179055506001600060016101000a81548160ff02191690831515021790555050565b6000809054906101000a900460ff16610dee57600080fd5b600454811015610dfd57600080fd5b60008060029054906101000a900473ffffffffffffffffffffffffffffffffffffffff169050818173ffffffffffffffffffffffffffffffffffffffff166370a08231336040518263ffffffff1660e01b8152600401808273ffffffffffffffffffffffffffffffffffffffff1673ffffffffffffffffffffffffffffffffffffffff16815260200191505060206040518083038186803b158015610ea157600080fd5b505afa158015610eb5573d6000803e3d6000fd5b505050506040513d6020811015610ecb57600080fd5b81019080805190602001909291905050501015610ee757600080fd5b8073ffffffffffffffffffffffffffffffffffffffff166323b872dd3330856040518463ffffffff1660e01b8152600401808473ffffffffffffffffffffffffffffffffffffffff1673ffffffffffffffffffffffffffffffffffffffff1681526020018373ffffffffffffffffffffffffffffffffffffffff1673ffffffffffffffffffffffffffffffffffffffff1681526020018281526020019350505050602060405180830381600087803b158015610fa257600080fd5b505af1158015610fb6573d6000803e3d6000fd5b505050506040513d6020811015610fcc57600080fd5b810190808051906020019092919050505050600660008154809291906001019190505550600860003373ffffffffffffffffffffffffffffffffffffffff1673ffffffffffffffffffffffffffffffffffffffff16815260200190815260200160002060009054906101000a900460ff16611100576001600860003373ffffffffffffffffffffffffffffffffffffffff1673ffffffffffffffffffffffffffffffffffffffff16815260200190815260200160002060006101000a81548160ff02191690831515021790555060073390806001815401808255809150509060018203906000526020600020016000909192909190916101000a81548173ffffffffffffffffffffffffffffffffffffffff021916908373ffffffffffffffffffffffffffffffffffffffff160217905550505b8160056000828254019250508190555081600960003373ffffffffffffffffffffffffffffffffffffffff1673ffffffffffffffffffffffffffffffffffffffff168152602001908152602001600020600082825401925050819055505050565b60045481565b600260009054906101000a900473ffffffffffffffffffffffffffffffffffffffff1681565b6000600354600554101590509056fea265627a7a7231582045ca2589946c50f7b3faac4aca6f1ecec9ef35ca2cab6c0b27f57c22406baab164736f6c63430005100032a265627a7a72315820ef40be3bd620cdf726b4ae504c60ffe3687bda3cf41686dda9f3c65804f5191264736f6c63430005100032",
  "source": "// SPDX-License-Identifier: MIT\npragma solidity >=0.5.0 <0.8.0;\n\nimport \"./Box.sol\";\n\n/**\n * @title Box Factory\n * @dev Helper contract for creating Boxes\n */\ncontract BoxFactory {\n    event BoxCreated(address indexed owner, address box);\n\n    function createBox(\n      address token_address,\n      uint256 goal,\n      uint256 mininal_contribution,\n      address receiver\n    ) public returns (address) {\n        address owner = msg.sender;\n        address boxAddress = address(new Box(\n          token_address,\n          goal,\n          mininal_contribution,\n          receiver,\n          owner\n        ));\n        emit BoxCreated(owner, boxAddress);\n        return boxAddress;\n    }\n}\n",
  "sourcePath": "/Users/alex/projects/crypto/celo/dappkit/client/contracts/BoxFactory.sol",
  "compiler": {
    "name": "solc",
    "version": "0.5.16+commit.9c3226ce.Emscripten.clang"
  },
  "schemaVersion": "3.3.4",
  "updatedAt": "2021-04-11T12:18:48.430Z",
  "networkType": "ethereum",
  "devdoc": {
    "details": "Helper contract for creating Boxes",
    "methods": {},
    "title": "Box Factory"
  },
  "userdoc": {
    "methods": {}
  }
}